:020000040800F2
:1000000000000220B9020008C1020008C502000871
:10001000390300085103000899030008000000009C
:100020000000000000000000000000001926000889
:10003000E5030008000000009D250008F1250008E8
:10004000F5030008F5030008F5030008F5030008B0
:10005000F5030008F5030008A1540008F5030008A3
:10006000F5030008F5030008F5030008F503000890
:10007000F5030008F5030008F5030008F503000880
:10008000F5030008F5030008F5030008F503000870
:10009000F5030008F5030008F5030008F503000860
:1000A000F5030008F5030008F5030008F503000850
:1000B000F5030008F5030008F5030008F503000840
:1000C000F5030008F5030008F5030008F503000830
:1000D000F5030008F5030008F5030008F503000820
:1000E00091540008F5030008F5030008F503000823
:1000F000F5030008F5030008F5030008F503000800
:10010000F5030008F5030008F5030008F5030008EF
:10011000F5030008F5030008F5030008F5030008DF
:10012000F5030008F5030008F5030008F5030008CF
:10013000F5030008F5030008F5030008F5030008BF
:10014000F5030008F5030008F5030008F5030008AF
:10015000F5030008F5030008F5030008F50300089F
:10016000F5030008F5030008F5030008F50300088F
:10017000F5030008F5030008F5030008000000007F
:10018000F5030008F503000800B583B004F088FB10
:10019000384B394A1360394A136039490CE00A6810
:1001A0004B6801F10C04886803E01168196004339E
:1001B00004329842F9D82146324B9942EFD32E4B64
:1001C0001A68314B9A4204D12C4B1A682F4B9A4231
:1001D00000D0FEE7274B2E4A13602E4A13602E4BA9
:1001E0000AE0194651F8082B5B6802E00020106015
:1001F00004329A42FAD30B46284A9342F1D3244B55
:100200001B6813B9234B1B6803B1FEE704F04CFBDA
:10021000694601A804F0BAFA214C224B1C1BA41019
:10022000002504E01E4B53F8253098470135AC42B9
:10023000F8DC1D4C1D4B1C1BA410002504E01A4BC0
:1002400053F8253098470135AC42F8DC0099019805
:1002500005F05CF90546164C164B1C1BA41004E077
:10026000013C134B53F824309847002CF8DC284607
:1002700004F05EFABABADECA00000020CC08002002
:10028000004000081840000878563412325476981E
:10029000D0080020A80900201840000828400008C5
:1002A000284000082840000828400008284000088E
:1002B000284000082840000808B5FFF765FF00BF88
:1002C00000BEFEE71EF0040F0CBFEFF30880EFF353
:1002D00009807146444A10472DE9F04182B0044636
:1002E0008846134B5E6B9F6B9D6A1B6B13F0020F6E
:1002F0000DD00F4BDB6A002B09DA4BF6AB6104F033
:100300004FFB20B14FF00042094BDA620CE0094884
:1003100004F068FACDF800803B4632462946204674
:1003200004F0C6FA00BEFEE702B0BDE8F08100BFEF
:1003300000ED00E070AB00081EF0040F0CBFEFF3FF
:100340000880EFF309807146284A1047704700BFC4
:100350001EF0040F0CBFEFF30880EFF30980714625
:10036000224A10472DE9F04182B004468846084BE6
:100370005E6B9F6B9D6A074804F034FACDF80080ED
:100380003B4632462946204604F092FA00BEFEE77C
:1003900000ED00E080AB00081EF0040F0CBFEFF38F
:1003A0000880EFF309807146114A10472DE9F041AA
:1003B00082B004468846084B5E6B9F6B9D6A074877
:1003C00004F010FACDF800803B463246294620461C
:1003D00004F06EFA00BEFEE700ED00E08CAB000812
:1003E00000BEFEE700BEFEE7D90200086503000874
:1003F000AD03000800BEFEE710B5044605F030FD71
:10040000A26BE36B9A4201D1012400E0002405F0C5
:100410003FFD204610BD00BF10B5044605F020FD8D
:100420000BE0636A63B104F1240001F035FA08B10E
:1004300001F0ACFBA36C013BA364A36C002BF0DCCC
:100440004FF0FF33A36405F023FD05F009FD0BE039
:10045000236963B104F1100001F01EFA08B101F044
:1004600095FB636C013B6364636C002BF0DC4FF025
:10047000FF33636405F00CFD10BD00BF10B50446EA
:1004800005F0EEFCA36B0BB9012400E0002405F09D
:10049000FFFC204610BD00BF38B504461546026C6F
:1004A0003AB903685BBB406801F0E2FB002363607C
:1004B0002CE06DB9806805F045FDA268236C1344FB
:1004C000A360626893421CD32368A36000201DE0F0
:1004D000C06805F037FD236C5B42E2681A44E260B5
:1004E00021688A4202D262681344E360022D0AD175
:1004F000A36B53B1A36B013BA363002006E0002074
:1005000004E0002002E0002000E00020A36B0133A3
:10051000A36338BD026C72B110B5C3681344C360E5
:100520004468A34201D30368C3600C46C1682046F7
:1005300005F008FD10BD7047F0B585B00F4601927B
:100540001E46044600B900BE17B9236C03B100BEB5
:10055000022E03D1E36B012B00D000BE01F01EFB85
:1005600020B9019B23B100BE002502E0002500E078
:10057000002505F075FCA26BE36B9A4201D3022EB5
:100580001AD1324639462046FFF786FF636A53B1D7
:1005900004F1240001F080F9012809D14FF08052C4
:1005A000294B1A6004E018B14FF08052264B1A60B4
:1005B00005F06EFC012044E0019B1BB905F068FCCE
:1005C00000203EE01DB902A801F0A2FA012505F0C5
:1005D0005FFC00F011FD05F043FC636CB3F1FF3FDD
:1005E00001D100236364A36CB3F1FF3F01D1002369
:1005F000A36405F04DFC01A902A801F097FAD0B957
:100600002046FFF7F9FE80B1019904F1100001F0D6
:10061000A3F82046FFF700FF00F080FF0028A8D1D4
:100620004FF08052084B1A60A3E72046FFF7F4FE14
:1006300000F074FF9DE72046FFF7EEFE00F06EFF2E
:10064000002005B0F0BD00BF04ED00E038B5034662
:1006500000B900BE11B91A6C02B100BE1A6C02B921
:1006600000BE4FF0BF0080F311889A6B3AB11C4670
:10067000DD681846FFF74EFFE560012300E0002328
:100680004FF0000080F31188184638BDF0B585B0F2
:100690000E4601921F46044600B900BE16B9236CEF
:1006A00003B100BE01F07AFA20B9019B23B100BE6C
:1006B000002502E0002500E0002505F0D1FBA36B3A
:1006C00053B3E56831462046FFF724FFA7B9A36B73
:1006D000013BA363236813B901F0E2FB6060236967
:1006E000B3B104F1100001F0D7F8012810D14FF098
:1006F0008052314B1A600BE0E560636A43B104F14C
:10070000240001F0C9F818B14FF080522A4B1A604A
:1007100005F0BEFB01204DE0019B1BB905F0B8FBC5
:10072000002047E01DB902A801F0F2F9012505F00B
:10073000AFFB00F061FC05F093FB636CB3F1FF3F8E
:1007400001D100236364A36CB3F1FF3F01D1002307
:10075000A36405F09DFB01A902A801F0E7F918BB0D
:100760002046FFF78BFEC8B1236833B905F078FB4C
:10077000606801F023FA05F08BFB019904F1240075
:1007800000F0EAFF2046FFF747FE00F0C7FE002812
:1007900093D14FF08052084B1A608EE72046FFF746
:1007A0003BFE00F0BBFE88E72046FFF735FE00F079
:1007B000B5FE002005B0F0BD04ED00E010B5044624
:1007C00000B900BE05F04CFBA46B05F061FB2046B0
:1007D00010BD00BF10B5044600B900BE05F040FBD7
:1007E000E36BA46B1C1B05F053FB204610BD00BF40
:1007F00008B5034600B900BE184601F05FFD08BD0C
:1008000038B5044600B900BE11B9206C00B100BE75
:10081000022B03D1E06B012800D000BE4FF0BF00D7
:1008200080F31188A56BE06B854201D3022B18D1B0
:1008300015461A462046FFF72FFEA36CB3F1FF3F83
:100840000AD1636A7BB104F1240001F025F860B19C
:100850006DB101232B600BE0A36C0133A364012372
:1008600006E0002304E0012302E0012300E001236D
:100870004FF0000080F31188184638BD034600B9D8
:1008800000BE1A6C02B100BE1A6812B95A6802B1F1
:1008900000BE4FF0BF0080F31188986BDA6B904276
:1008A0001DD29A6B01329A639A6CB2F1FF3F0CD160
:1008B0005A6AB2B110B518460C46243000F0ECFF6D
:1008C00088B194B10123236010E09A6C01329A64DC
:1008D00001234FF0000080F3118818467047002371
:1008E000F7E70123F5E7012300E001234FF00000C3
:1008F00080F31188184610BD38B5044600B900BE13
:1009000011B9236C03B100BE4FF0BF0080F3118812
:10091000A36BD3B115462046FFF7FCFDA36B013B4B
:10092000A363636CB3F1FF3F0AD123697BB104F188
:10093000100000F0B1FF60B16DB101232B600BE03E
:10094000636C01336364012306E0002304E00123A8
:1009500002E0012300E001234FF0000080F3118842
:10096000184638BD034600B900BE9B6B0BB9012089
:1009700070470020704700BF034600B900BE9A6B65
:10098000DB6B9A4201D1012070470020704700BF05
:10099000034600B900BE986B704700BF38B54C20C5
:1009A00001F07CFC0446C8B1002545600560856007
:1009B000C56085630123C36305644FF0FF3343645F
:1009C0008364103004F0DEFD04F1240004F0DAFD4D
:1009D0002B462A4629462046FFF7AEFD204638BD65
:1009E00070B50E46044600B900BE656801F08AF88D
:1009F000854204D1E3680133E360012070BD002328
:100A0000324619462046FFF741FE012802D1E3682D
:100A10000133E36070BD00BF38B5044600B900BEC5
:100A2000656801F06FF885420AD1E368013BE36035
:100A300043B91A4619462046FFF77EFD012038BD0E
:100A4000002038BD012038BD70B504460D4616465D
:100A500005F006FA636CB3F1FF3F01D10023636434
:100A6000A36CB3F1FF3F01D10023A36405F010FA9A
:100A7000A36B2BB93246294604F1240000F0DAFEBC
:100A80002046FFF7C9FC70BD38B50D46044600B9D5
:100A900000BE05F0E5F92168E26B236C03FB021050
:100AA00060600020A063A160013A02FB0313E360D1
:100AB0004FF0FF336364A36465B9236993B104F114
:100AC000100000F0E9FE01280CD14FF08052074BD6
:100AD0001A6007E004F1100004F054FD04F1240052
:100AE00004F050FD05F0D4F9012038BD04ED00E01C
:100AF00070B50D46064600B900BE1DB105FB06F0F7
:100B0000013000E000204C3001F0C8FB044658B131
:100B10000DB9206002E000F14C030360E663256438
:100B200001212046FFF7B0FF04B900BE204670BD8A
:100B300010B50C46034600B900BEA34200D200BE69
:100B4000022200211846FFF7D3FF034600B1846359
:100B500003B900BE184610BDF8B5044615461E463A
:100B6000002306E0C85CE21882F85800CA5C12B1A3
:100B700001330F2BF6D9002384F867300C2D00D9F0
:100B80000C252565A5660027E76604F1280004F01A
:100B900005FD04F13C0004F001FD6463C5F10D05A1
:100BA000E563A464BDF81830626D3146201D01F084
:100BB00085FC276784F87470F8BD00BF024600B951
:100BC00000BE916B0A4B994201D1012300E0002342
:100BD00043B1D26C07498A4206D002B100232BB937
:100BE00000207047002070470020704701207047A8
:100BF000000000101400001070B5002407E004EBA2
:100C0000840293001048184404F0BCFC01340C2CFE
:100C1000F5D90E4C04F59676304604F0B3FC04F595
:100C2000A075284604F0AEFC04F1140004F0AAFC00
:100C300004F5AA7004F0A6FC204604F0A3FCC4F856
:100C40006861C4F86C5170BD2800001000000010ED
:100C500010B50446436A13B9406D01F02FFB2046DE
:100C600001F02CFB10BD00BF38B5104BD3F870213C
:100C70009062D3F87431984208D20C4BD3F86C01CF
:100C8000D3F87011283104F099FC38BD0446074DA3
:100C9000D5F86801D5F87011283104F08FFCD5F82B
:100CA00078319C4201D2C5F8784138BD000000106F
:100CB00070B506460C4619B9800001F0EFFA0446FB
:100CC00054B1782001F0EAFA054608B1446504E021
:100CD000204601F0F3FA00E0002525B1B200A5217D
:100CE000686D05F0C9F9284670BD00BF10B504460F
:100CF00010B9044BD3F8704100231A46201D01F0AF
:100D0000DDFB10BD0000001070B5054605F0A8F829
:100D100015B9244BD3F8705105F12806304604F07C
:100D200067FC80B92A6D02EB82018B001D490B44E0
:100D30009B6A43B9012303FA02F2D1F87C3123EA1A
:100D40000202C1F87C21EB6C1BB105F13C0004F000
:100D50004FFC144C314604F5AA7004F023FCD4F87F
:100D600080310133C4F88031D4F884310133C4F8C0
:100D7000843105F08DF8D4F8883193B1D4F870310E
:100D80009D4208D1D4F88C3103B100BE4FF080529F
:100D9000054B1A6070BD05F063F804F03BFC05F0EC
:100DA00077F870BD0000001004ED00E010B50446B7
:100DB00005F056F814B9044BD3F87041246D05F0D2
:100DC00067F8204610BD00BF0000001003464FF03A
:100DD000BF0080F3118813B9044BD3F870311B6D39
:100DE0004FF0000080F31188184670470000001093
:100DF000F8B504460D460C2900D900BE0C2D00D9CB
:100E00000C2505F02DF814B9304BD3F87041A36EC2
:100E10009D4257D00CD92D4AD2F8702194420ED061
:100E20002A4AD2F87021126D95420AD200270BE0AF
:100E3000264AD2F87021944205D0002704E000270A
:100E400002E0012700E00127266DB34200D12565AD
:100E5000A566E36B002B02DBC5F10D05E563A16B15
:100E600006EB860293001A4A1344994201D10123EA
:100E700000E000230BB304F12805284604F0B8FB7A
:100E800048B9012303FA06F6104AD2F87C3123EA66
:100E90000606C2F87C61236D012202FA03F10B48B9
:100EA000D0F87C210A43C0F87C21283003EB83036F
:100EB0009A002946104404F075FB1FB14FF0805290
:100EC000044B1A6004F0E4FFF8BD00BF00000010FE
:100ED0002800001004ED00E0034600B900BE93B303
:100EE000194AD2F8702193422DD070B51C4604F0F7
:100EF000B7FF2046FFF762FE012821D104F1280642
:100F0000304604F075FB236D012202FA03F10E4D09
:100F1000D5F87C210A43C5F87C2105F1280003EBB4
:100F200083039A003146104404F03CFB226DD5F84F
:100F300070311B6D9A4203D34FF08052034B1A60FD
:100F400004F0A6FF70BD70470000001004ED00E043
:100F500070B5044600B900BE4FF0BF0080F31188A1
:100F60002046FFF72BFE01282CD11A4BD3F88C31E9
:100F70000BBB226D174BD3F870311B6D9A4201D217
:100F8000002500E0012504F12806304604F030FB7E
:100F9000236D012202FA03F10E48D0F87C210A43A6
:100FA000C0F87C21283003EB83039A0031461044BB
:100FB00004F0F8FA07E004F13C01074804F0F2FA03
:100FC000002500E000254FF0000080F3118828463E
:100FD00070BD00BF000000101400001008B54FF0F5
:100FE000BF0080F311880022024BC3F8882101F072
:100FF0005BFA08BD00000010034AD2F88C310133BF
:10100000C2F88C31704700BF00000010014BD3F8CC
:101010007401704700000010014BD3F87401704751
:1010200000000010014BD3F8900170470000001041
:10103000F8B50F4615461E46044600B900BE04F03A
:101040000FFF0EB1236F336094F87430DBB20222CD
:1010500084F874206A1E032A15D8DFE802F002071C
:101060000C0F226F1743276701250FE0226F013213
:10107000226701250AE02767012507E0022B04D03B
:101080002767012502E0012500E00025012B24D17E
:1010900004F12806304604F0ABFA236D012202FA6F
:1010A00003F11048D0F87C210A43C0F87C21283095
:1010B00003EB83039A003146104404F073FAE36CA7
:1010C00003B100BE226D074BD3F870311B6D9A42FD
:1010D00003D94FF08052044B1A6004F0D9FE284621
:1010E000F8BD00BF0000001004ED00E070B504463C
:1010F00000B900BE4FF0BF0080F311880BB1206F24
:10110000186094F87430DBB2022084F87400013A5D
:10111000032A15D8DFE802F002070C0F226F1143F3
:10112000216701250FE0226F0132226701250AE0C5
:101130002167012507E0022B04D02167012502E089
:10114000012500E00025012B2FD1E36C03B100BE87
:10115000194BD3F88C31BBB904F12806304604F0A2
:1011600047FA236D012202FA03F11348D0F87C21DB
:101170000A43C0F87C21283003EB83039A003146F0
:10118000104404F00FFA04E004F13C010B4804F0B1
:1011900009FA226D084BD3F870311B6D9A4204D9BD
:1011A000049B13B10123049A13604FF0000080F3F5
:1011B0001188284670BD00BF000000101400001008
:1011C000F8B507460C4615461E4604F049FE314B5D
:1011D000D3F8703193F87430DBB2022B34D02D4B3E
:1011E000D3F87021106F20EA07001067D3F8703130
:1011F000012283F874203EB3264BD3F870012830C7
:1012000004F0F6F960B9234BD3F87021116D012277
:1012100002FA01F1D3F87C2122EA0102C3F87C2111
:10122000B6F1FF3F06D11B48D0F87011283104F009
:10123000B9F905E0174BD3F874013044FFF714FDFA
:101240004FF08052144B1A6004F022FE04F008FEA6
:1012500025B1104BD3F870311B6F2B600D4BD3F8B9
:10126000703193F87430DBB2012B08D0094BD3F8FE
:101270007031196F21EA04011967012400E000248C
:10128000044BD3F87031002283F8742004F000FE80
:101290002046F8BD0000001004ED00E0034600B950
:1012A00000BE4FF0BF0080F3118893F87420D2B2D3
:1012B000022083F87400186F01301867012A35D1B5
:1012C00070B5DA6C02B100BE1C460D461A4BD3F85D
:1012D0008C31BBB904F12806304604F089F9236D3E
:1012E000012202FA03F11448D0F87C210A43C0F825
:1012F0007C21283003EB83039A003146104404F02C
:1013000051F904E004F13C010C4804F04BF9226D62
:10131000094BD3F870311B6D9A4202D90DB10123EC
:101320002B604FF0000080F3118870BD4FF000007B
:1013300080F31188704700BF0000001014000010F7
:1013400038B505460C4604F08BFD2A4BD3F87031B6
:101350001B6F73BB274BD3F87031012283F87420C5
:101360003CB3244BD3F87001283004F041F960B944
:10137000204BD3F87021116D012202FA01F1D3F84C
:101380007C2122EA0102C3F87C21B4F1FF3F06D19F
:101390001848D0F87011283104F004F905E0154B15
:1013A000D3F874012044FFF75FFC4FF08052124BDA
:1013B0001A6004F06DFD04F053FD0E4BD3F870314C
:1013C0001C6F64B12DB10B4BD3F8703100221A673A
:1013D00005E0084BD3F87021136F013B1367054BF1
:1013E000D3F87031002283F8742004F051FD2046B8
:1013F00038BD00BF0000001004ED00E02DE9F04111
:10140000454BD3F88C31002B75D1434BD3F8742165
:101410000132C3F87421D3F87481B8F1000F14D1EC
:10142000D3F868311B6803B100BE3B4BD3F8682189
:10143000D3F86C11C3F86811C3F86C21D3F8942168
:101440000132C3F8942104F0E5F8334BD3F8783136
:10145000984503D2002742E0012700E000272E4BE9
:10146000D3F868311B680BB9012300E000232BB1CE
:101470004FF0FF32284BC3F8782130E0264BD3F8E9
:101480006831DB68DC68A36A984503D2224AC2F857
:10149000783124E004F12806304604F0A9F8E36C22
:1014A0001BB104F13C0004F0A3F8236D012202FA01
:1014B00003F1194DD5F87C210A43C5F87C2105F1CB
:1014C000280003EB83039A003146104404F06AF8C5
:1014D000226DD5F870311B6D9A42BDD2BFE70E491F
:1014E000D1F870311B6D03EB83039A000A44936AB1
:1014F000012B08D808E0084AD2F898310133C2F825
:101500009831002700E00127034BD3F89C3103B149
:1015100001273846BDE8F0810000001070B5354B5A
:10152000D3F88C3103B900BE04F09AFC314BD3F8E8
:101530008C21013AC3F88C21D3F88C31002B52D185
:101540002C4BD3F8903143BB00244FE0294C236A45
:10155000DD6805F13C0004F04BF805F12806304643
:1015600004F046F82B6D012202FA03F1D4F87C2135
:101570000A43C4F87C2104F1280003EB83039A009A
:101580003146104404F00EF82A6DD4F870311B6D0A
:101590009A4202D30122C4F89C21164B5B69002BAE
:1015A000D4D1144BD3F898316BB911E0FFF726FF73
:1015B00018B101220F4BC3F89C210E4AD2F8983182
:1015C000013BC2F898310B4BD3F89831002BEDD189
:1015D000084BD3F89C31012B07D14FF08052064BBA
:1015E0001A60012402E0002400E0002404F050FC12
:1015F000204670BD0000001004ED00E010B528B3D7
:101600000346164AD2F88C2102B100BE1C46FFF7F1
:10161000F3FC124AD2F874311C44D2F8700128301D
:1016200003F0E6FF60B90D4BD3F87021116D012274
:1016300002FA01F1D3F87C2122EA0102C3F87C21ED
:101640002046FFF711FBFFF769FF00E0002018B903
:101650004FF08052024B1A6010BD00BF0000001016
:1016600004ED00E038B50C46054600B900BE04B9EB
:1016700000BE214BD3F88C3103B100BEFFF7BCFC98
:101680001D4BD3F874212B681C449A4205D2A34207
:1016900009D9A24209D300230CE0A34207D8A242F1
:1016A00007D3002306E0002304E0012302E0012326
:1016B00000E001232C60B3B10F4BD3F87001283048
:1016C00003F096FF60B90C4BD3F87021116D012225
:1016D00002FA01F1D3F87C2122EA0102C3F87C214D
:1016E0002046FFF7C1FAFFF719FF18B94FF08052F3
:1016F000024B1A6038BD00BF0000001004ED00E08E
:1017000038B520E0FFF778FC124BD3F85441FFF7CF
:1017100005FFC4B104F0A4FB0E4CD4F86031DD68C1
:1017200005F1280003F064FFD4F89031013BC4F8C0
:101730009031D4F88031013BC4F8803104F0A8FB2B
:101740002846FFF785FA034BD3F88031002BD9D117
:1017500038BD00BF0000001038B50D46034600B983
:1017600000BE154CD4F870113C31184603F026FF2A
:10177000D4F87001283003F03BFF58B9D4F8702139
:10178000116D012202FA01F1D4F87C2122EA010252
:10179000C4F87C21B5F1FF3F06D10748D0F870119D
:1017A000283103F0FFFE38BD034BD3F87401284401
:1017B000FFF75AFA38BD00BF0000001038B51546D3
:1017C000034600B900BE1A4AD2F88C2102B900BE05
:1017D000174CD4F8702141F00041D163D4F8701156
:1017E0003C31184603F0DEFED4F87001283003F0D7
:1017F000FFFE58B9D4F87021116D012202FA01F1EF
:10180000D4F87C2122EA0102C4F87C21B5F1FF3F23
:1018100006D10748D0F87011283103F0C3FE38BD57
:10182000034BD3F874012844FFF71EFA38BD00BFFC
:101830000000001070B50E461546034600B900BE04
:10184000144CD4F870113C31184603F0ABFED4F8B8
:101850007001283003F0CCFE58B9D4F87021116D16
:10186000012202FA01F1D4F87C2122EA0102C4F833
:101870007C21012D06D10748D0F87011283103F0E2
:1018800091FE70BD034BD3F874013044FFF7ECF9BF
:1018900070BD00BF0000001038B5C368DC6804B933
:1018A00000BE04F13C05284603F0A2FE164BD3F817
:1018B0008C31BBB904F12805284603F099FE236D4D
:1018C000012202FA03F11048D0F87C210A43C0F843
:1018D0007C21283003EB83039A002946104403F04F
:1018E00061FE03E02946094803F05CFE226D064BC9
:1018F000D3F870311B6D9A4204D90120024BC3F812
:101900009C0138BD002038BD0000001014000010FC
:1019100070B5184BD3F88C3103B900BE41F00041CB
:101920000160C56805B900BE03F062FE05F1280636
:10193000304603F05DFE2B6D012202FA03F10D4CDF
:10194000D4F87C210A43C4F87C2104F1280003EB7D
:1019500083039A003146104403F024FE2A6DD4F824
:1019600070311B6D9A4203D90120C4F89C0170BDEF
:10197000002070BD000000102C4BD3F88C3123B137
:1019800001222A4BC3F89C21704710B5274B002237
:10199000C3F89C21D3F870315B6D1A68B2F1A53F92
:1019A0000BD15A68B2F1A53F07D19A68B2F1A53FB1
:1019B00003D1DB68B3F1A53F07D01C4BD3F870010E
:1019C000D3F87011583102F0FBFF1849D1F87C317F
:1019D000B3FA83F3DBB2C3F11F0303EB830082008E
:1019E0000A44926A02B900BE104A9900CC18A000BD
:1019F0001044C46A6468C46202F1280019448A0071
:101A000008320244944206D1606803EB83018A00E5
:101A100006490A44D062054903EB83039A000A444D
:101A2000D36ADB68C1F8703110BD00BF0000001040
:101A300070B5044604F014FA14B9284BD3F8704179
:101A400004F12806304603F0D3FD80B9226D02EB85
:101A500082018B0021490B449B6A43B9012303FA9D
:101A600002F2D1F87C3123EA0202C1F87C21E36C56
:101A70001BB104F13C0003F0BBFD184D3146284674
:101A800003F090FD04F004FAD5F870319C4219D1AE
:101A9000D5F8883143B1D5F88C3103B100BE4FF091
:101AA00080520F4B1A6070BD0C4B1A68D3F89031FE
:101AB0009A4204D10022094BC3F8702170BDFFF790
:101AC0005BFF70BD054BD3F888312BB104F0C8F92A
:101AD00003F0A0FD04F0DCF970BD00BF00000010B1
:101AE00004ED00E0064BD3F87021D06BD3F87021E1
:101AF000D3F870311B6DC3F10D03D363704700BF82
:101B000000000010014BD3F8700170470000001076
:101B1000034600B900BE044AD2F894111960D2F805
:101B200074215A60704700BF0000001038B50C46A1
:101B3000054600B900BE04B900BE04F091F9124B8D
:101B4000D3F874212368B3F1FF3F14D028680E49FD
:101B5000D1F89411884202D069688A420DD269682E
:101B6000501A83420BD98A1A134423602846FFF780
:101B7000CFFF002404E0002402E0012400E001245F
:101B800004F086F9204638BD000000100122024B07
:101B9000C3F89C21704700BF00000010064BD3F82B
:101BA00088312BB1044BD3F88C311BB9022070471C
:101BB000012070470020704700000010002852D01C
:101BC00038B50246036D2849D1F87011096D8B4272
:101BD00048D2C16B002906DB2349D1F87011096D89
:101BE000C1F10D01C163906B03EB830399001F4B9F
:101BF0001944884201D1012300E000236BB315464C
:101C000002F12804204603F0F3FC80B92A6D02EBB0
:101C100082018B0014490B449B6A43B9012303FAE8
:101C200002F2D1F87C3123EA0202C1F87C210E488D
:101C3000D0F870311B6D2B65012202FA03F1D0F848
:101C40007C210A43C0F87C21283003EB83039A00EF
:101C50002146104403F0A6FC38BD034BD3F8703185
:101C60001B6D136538BD7047000000102800001080
:101C7000002841D038B50346224AD2F8702190425C
:101C800000D000BEDA6E02B900BE013ADA66186D05
:101C9000996E884232D09ABB1C4603F1280528462B
:101CA00003F0A6FC80B9226D02EB82018B0015497E
:101CB0000B449B6A43B9012303FA02F2D1F87C3149
:101CC00023EA0202C1F87C21A36E2365C3F10D0251
:101CD000E263012404FA03F10A48D0F87C210A43A4
:101CE000C0F87C21283003EB83039A002946104476
:101CF00003F058FC204638BD00207047002038BD56
:101D0000002038BD000000102DE9F04F85B08A4654
:101D1000154699460E9FDDF83C80039000B900BE41
:101D200027F000460C2E00D900BE10992846FEF779
:101D3000BFFF0446002866D0002F02DA4FF0010BE7
:101D400001E04FF0000B109B13B10123636201E02F
:101D500000236362636D05F18047013F03EB870752
:101D600027F007070095119B324651462046FEF7A3
:101D7000F3FE5B464A460399384600F063FB206059
:101D8000B8F1000F01D0C8F8004004F069F8294B01
:101D9000D3F890210132C3F89021D3F870314BB9B8
:101DA000244BC3F87041D3F89031012B0FD1FEF7CB
:101DB00023FF0CE01F4BD3F8883143B91D4BD3F8F8
:101DC00070311B6D9E4202D31A4BC3F87041194B00
:101DD000D3F884210132C3F88421226D012505FA4C
:101DE00002F0D3F87C110143C3F87C11283302EBD5
:101DF0008202900004F12801184403F0D3FB04F0A0
:101E000047F8284602E03E464FF0FF3001280DD14A
:101E1000084BD3F888314BB1064BD3F870311B6DAA
:101E20009E4203D94FF08052034B1A6005B0BDE8C3
:101E3000F08F00BF0000001004ED00E000B585B099
:101E400000230393029301934FF0004200928022FB
:101E500010491148FFF758FF012801D100F0CEF8D2
:101E6000012811D14FF0BF0080F311880B4B4FF0C8
:101E7000FF32C3F878210122C3F888210022C3F879
:101E8000742100F0F9FA01E000B900BE05B05DF878
:101E900004FB00BFCCC60008495600080000001033
:101EA000064BD3F870312BB1044BD3F87021D36EAD
:101EB0000133D366014BD3F8700170470000001066
:101EC00008B54160006191420AD8D21A83699A42EA
:101ED00011D2011D0A4B186803F070FB002008BDE9
:101EE0009A4201D2994208D2011D054B586803F06D
:101EF00065FB002008BD012008BD012008BD00BF12
:101F0000A0010010064B5A681368B3FA83F35B090B
:101F1000036013B9D368186870470020704700BF8A
:101F2000A001001070B503F09BFF0D4B9B68A3B997
:101F30000B4C04F10C06304603F024FB04F12005A1
:101F4000284603F01FFB6660256000220C210A2052
:101F5000FEF7CEFDA06000B900BE03F099FF70BD92
:101F6000A00100102DE9F0410D46A1B180461746B1
:101F70001E46282000F092F9044668B1FFF7D2FF10
:101F8000C4F80080A561E7612662069B6362201D9C
:101F900003F004FB00E0002405B900BE2046BDE8C4
:101FA000F08100BF10B5044600B900BE03F058FF31
:101FB000246A03F06DFF204610BD00BF38B50D4602
:101FC000044600B900BE03F04BFF256203F060FF3A
:101FD00038BD00BF10B5044600B900BE03F040FF95
:101FE0006469003418BF012403F052FF204610BD7D
:101FF000034600B900BE1868704700BF00B585B041
:10200000FFF790FF0A4B9B685BB100230393029399
:102010000193084A0092802207490848FFF774FE9E
:1020200000E0002000B900BE05B05DF804FB00BF71
:10203000A001001009000080D4C600088522000815
:1020400030B585B0044600B900BE13488068F8B1C9
:102050001D46019102920394052913DCFFF79EFDB2
:10206000022807D10023089A01A90B488068FEF7CF
:1020700063FA0EE000231A4601A907488068FEF7BC
:102080005BFA06E000232A4601A9FEF7B9FB00E04F
:10209000002005B030BD00BFA001001070B582B0B7
:1020A00021E0DB681E68DC68251D284603F0A0FAE5
:1020B000636A20469847E369012B14D1A36933442E
:1020C0009E4207D26360246129460C4B586803F096
:1020D00075FA08E0002100910B4632462046FFF7D2
:1020E000AFFF00B900BE054B5B681A68002AD8D163
:1020F000024A11685160136002B070BDA001001067
:1021000038B50546FEF782FF0446074B5B6B9842E5
:1021100004D2FFF7C3FF01232B6001E000232B60F3
:10212000014B5C63204638BDA001001070B582B041
:1021300005460E46104B5B68DB68DC68201D03F02B
:1021400057FAE369012B11D1A1692B463246294484
:102150002046FFF7B5FE012808D1002100910B466B
:102160002A462046FFF76CFF00B900BE636A20468E
:10217000984702B070BD00BFA001001070B582B0DA
:1021800006460C46FEF738FF01A8FFF7B9FF019B92
:10219000FBB9054644B9B04206D3FFF7BFF929465B
:1021A0003046FFF7C3FF16E02CB10C4B1B681C68D0
:1021B000B4FA84F464092246711B084B9868FEF750
:1021C00043FCFFF7ABF930B94FF08052044B1A6073
:1021D00001E0FFF7A3F902B070BD00BFA00100103D
:1021E00004ED00E030B587B03FE0039B002B3CDB03
:1021F000059C636913B1201D03F0FAF902A8FFF7EB
:102200007FFF039B092B30D8DFE803F00505052F7E
:10221000212C05052F210499A5690B460246294466
:102220002046FFF74DFE01281FD1636A20469847DC
:10223000E369012B19D1A269002100910B46049892
:1022400002442046FFF7FCFE78B900BE0DE0049979
:10225000A16101B900BE0346024601442046FFF7D2
:102260002FFE02E0204600F029F800231A4603A9B9
:1022700003488068FEF70AFA0028B6D107B030BDDF
:10228000A001001000B583B001A8FFF73BFE019943
:10229000FFF774FFFFF7A6FFF6E700BF10B504468F
:1022A000FEF7AAFE2146044B186803F095FD04468C
:1022B000FFF734F9204610BD0002001010B50446A7
:1022C000FEF79AFE2146034B186803F097FDFFF7CF
:1022D00025F910BD00020010034A044B1A600722C2
:1022E000043B1A60704700BF3F90020014E000E01A
:1022F0000423202203E0824203D2013352001E2B2A
:10230000F9D95800704700BF204B1B68B3F5006F28
:102310003AD170B51E4E46F010031E4D2B601E487C
:10232000801BFFF7E5FF1D4B03431D4C236046F068
:1023300011032B601B48801BFFF7DAFF1A4B034386
:1023400023601A4B43F012022A601948C01AFFF7A3
:10235000CFFF40F0837040F001102060154B2B60E0
:102360006FF06040FFF7C4FF40F0985040F001006C
:102370002060114A136843F480331360703213688D
:1023800043F00503136070BD704700BF90ED00E09F
:10239000000000089CED00E00000100801000706A6
:1023A000A0ED00E00040000801000705000000105B
:1023B000000200101300004024ED00E09A4800687D
:1023C000006880F308880B4B1968086801F1040164
:1023D000964AB1E8F00FA2E8F00FB0E8F80F83F3E7
:1023E000148880F309884FF0000080F31188DFF82B
:1023F00040E270477001001008B5836913F8023C91
:10240000012B0BD013B1022B11D008BD0B4A13685E
:1024100043F07F431360FFF7D1FF08BD4FF08052B8
:10242000074B1A60BFF34F8FBFF36F8F08BDEFF3F9
:10243000148121F0010181F3148808BD1CED00E036
:1024400004ED00E010B44FF0807440F8044C40F804
:10245000081C002140F80C1C40F8202CA0F144027C
:10246000012B03D1022340F8443C02E0032340F84F
:10247000443C104610BC704708B5094B1A6842F43A
:102480007F021A601A6842F07F421A60FFF73CFF31
:10249000FFF722FF0020034B186000DF08BD00BFDC
:1024A00020ED00E050000020034B1B68B3F57A7F5D
:1024B00000D000BE704700BF500000202DE9F04161
:1024C000064639BB304B43F0140202602F48C01A55
:1024D000FFF70EFF2E4B034373602E4B43F01502A4
:1024E000B2602D48C01AFFF703FF40F0837040F040
:1024F0000110F060022309E01A1D42F0100246F8B4
:10250000332006EBC302002151600133032BF3D9C2
:10251000BDE8F0810F4643B142F01402026098001A
:10252000FFF7E6FE1A4B034373600124002526E003
:1025300005EB4502930007EB0308D8F804209AB195
:10254000FA58231D134343F0100346F83430D8F8EB
:102550000400FFF7CDFED8F80830184340F0010022
:1025600006EBC403586008E0231D43F0100346F84F
:10257000343006EBC40300225A6001350134032CC9
:10258000D6D9BDE8F08100BF000000200000022085
:10259000010007030000001000020010EFF30980A3
:1025A000124B1A68EFF3148120E9F20F10602DE945
:1025B00008404FF0BF0080F31188FFF7DDF94FF0BE
:1025C000000080F31188BDE808401968086801F12F
:1025D0000401164AB1E8F00FA2E8F00FB0E8F80FD6
:1025E00083F3148880F30988704700BF70010010DE
:1025F00008B54FF0BF0080F31188FEF7FFFE18B159
:10260000044B4FF080521A604FF0000080F31188A5
:1026100008BD00BF04ED00E01EF0040F0CBFEFF397
:102620000880EFF30980E7E608ED00E09CED00E0AC
:10263000FDFFFFFFFFFFFFFFFFFFFFFFFFFFFFFFAC
:10264000FFFFFFFFFFFFFFFFFFFFFFFFFFFFFFFF9A
:10265000FFFFFFFFFFFFFFFFFFFFFFFFFFFFFFFF8A
:10266000FFFFFFFFFFFFFFFFFFFFFFFFFFFFFFFF7A
:10267000FFFFFFFFFFFFFFFFFFFFFFFFFFFFFFFF6A
:1040000068D1000800000020D008002068D1000816
:104010000000001000000010D0080020AC090020B3
:08402000000000100000001078
:10402800704700BF08B50A4B1A6842F400721A605C
:104038001A6842F480621A601A6842F480721A6040
:10404800032000F007F8FFF7EBFF002008BD00BFD2
:10405800003C024010B50446C31E042B03D9A4211A
:10406800094800F0B1FB04F00700084AD36823F4BC
:10407800E0631B041B0C43EA002040F0BF6040F4DF
:104088000030D06010BD00BF14A9000800ED00E0AA
:104098002DE9F04782B080460F46A34B984223D0C3
:1040A80003F5806398421FD003F5806398421BD0C4
:1040B80003F58063984217D003F58063984213D0C4
:1040C80003F5806398420FD003F5806398420BD0C4
:1040D80003F58063984207D003F58063984203D0C4
:1040E800C521924800F070FB3B881BB9C6218F4858
:1040F80000F06AFB7B68012B22D9112B20D0022B00
:104108001ED0122B1CD08A4A934219D002F5801275
:10411800934215D002F58012934211D0A2F5F812FD
:1041280093420DD002F58012934209D002F5801215
:10413800934205D0032B03D0C7217C4800F044FBF1
:10414800BB68022B03D9C821784800F03DFB002545
:104158002AE10124AC403E682640B44240F0238165
:104168007B68022B01D0122B4AD13B69C3B3092BC0
:1041780036D0ABB3A3B39BB393B3012B30D02FD0BE
:10418800022B2DD02CD02BD0032B29D0042B27D0B9
:1041980026D025D0052B23D022D0092B20D0062BC2
:1041A8001ED0092B1CD0072B1AD019D018D0082BD9
:1041B80016D015D014D0092B12D011D00A2B0FD03D
:1041C8000ED00B2B0CD00C2B0AD009D00D2B07D0FE
:1041D8000C2B05D00F2B03D0D921544800F0F4FA4A
:1041E800EA08083258F8220005F0070399000F235F
:1041F8008B4020EA03003B698B40034348F8223098
:10420800D8F800304FEA450A4FF0030909FA0AF9CD
:104218006FEA090903EA09027B6803F0030303FA5A
:104228000AF31343C8F800307B685A1E012A03D9E1
:10423800112B01D0122B1BD1FB68032B03D9EC21C6
:104248003A4800F0C1FAD8F8083009EA0302FB68D6
:1042580003FA0AF31343C8F80830D8F8043023EAFD
:1042680004047B68C3F30013AB401C43C8F8044044
:10427800D8F80C3009EA0309BB6803FA0AF349EADB
:104288000303C8F80C307B6813F0805F00F08B8064
:10429800284B5A6C42F480425A645B6C03F48043A6
:1042A8000193019BA9088A1C234B53F8220005F0AF
:1042B80003039B000F229A4020EA02001A4A904505
:1042C80021D002F5806290451FD002F580629045AA
:1042D8001DD002F5806290451BD002F580629045A2
:1042E80019D002F58062904517D002F5806290459A
:1042F80015D002F58062904513D002F58062904592
:104308001CD108221BE0002219E0012217E002223A
:1043180015E0032213E0042211E005220FE0062233
:104328000DE007220BE000BF0000024048A900088A
:10433800000011100038024000380140092202FA3A
:1043480003F3034302311B4A42F821301A4B1A681F
:10435800F34302EA0301786810F4803F01D046EA8B
:104368000201154A1160526803EA0201786810F4E4
:10437800003F01D046EA02010F4A5160926803EA01
:104388000201786810F4801F01D046EA02010A4A47
:104398009160D2681340796811F4001F01D046EA91
:1043A8000203054AD36001350F2D7FF6D2AE02B065
:1043B800BDE8F08700380140003C014038B50446AC
:1043C8000D4621B94FF4E471034800F0FDF9616925
:1043D8006940616138BD00BF48A90008704700BF47
:1043E80038B370B5044615460E4690F83D3013F0C4
:1043F800FF0F04D1002380F83C30FFF7EFFF04F1F2
:104408000801206800F018F8A2683146206800F01A
:10441800B9F8236BA2682946606800F015F922688C
:10442800A16852F8213043F0010342F821300020FE
:1044380070BD0120704700BF70B505460C460B687B
:104448004BB1022B07D0042B05D0062B03D09721A4
:104458004A4800F0B9F963682BB1022B03D09821C0
:10446800464800F0B1F9A3683BB1042B05D0082BEE
:1044780003D09921414800F0A7F9E3683BB1102B1C
:1044880005D0202B03D09A213C4800F09DF92369E0
:1044980033B1B3F5807F03D09B21384800F094F9FD
:1044A800636933B1B3F5007F03D09C21334800F032
:1044B8008BF9A36933B1B3F5806F03D09D212F48E1
:1044C80000F082F9E36933B1B3F5006F03D09E21A0
:1044D8002A4800F079F9236A33B1B3F5805F03D035
:1044E8009F21264800F070F9636A33B1B3F5005F85
:1044F80003D0A021214800F067F9A36A33B1B3F5CE
:10450800804F03D0A1211D4800F05EF9E36A33B162
:10451800B3F5004F03D0A221184800F055F9236BDA
:1045280033B1B3F5002F03D0A321144800F04CF9A0
:10453800206855F82030124919406368A66843EA94
:104548000602E3681A4323691A4363691A43A36995
:104558001A43E3691A43236A1A43636A1A43A36A2C
:104568001A43E36A1343226B13430B43082E01D10A
:1045780043F0400345F82030002070BD78A90008BA
:104588008000F7FF70B505460C4616460B680F2BE2
:1045980003D9F8212B4800F017F96368013B0E2B6B
:1045A80003D9F921274800F00FF9A368013BFE2B36
:1045B80003D9FA21234800F007F9E3680F2B03D940
:1045C800FB21204800F000F92369023B0E2B03D998
:1045D800FC211C4800F0F8F86369023B0F2B03D953
:1045E800FD21184800F0F0F8A36963B1B3F1805FCA
:1045F80009D0B3F1005F06D0B3F1405F03D0FE21CC
:10460800104800F0E1F8721C55F8223003F04046DB
:104618002368606843EA0013A06843EA0023E1685E
:1046280043EA01402369013B40EA03516369023BC5
:1046380041EA0363A1690B43334345F82230002064
:1046480070BD00BF78A90008F8B5B3F5804F62D1F6
:1046580017460C4606460B680F2B04D94FF4937186
:10466800304800F0B1F86368013B0E2B04D940F2E2
:1046780027112C4800F0A8F8A368013BFE2B04D9A9
:104688004FF49471274800F09FF8E3680F2B04D982
:1046980040F22911234800F097F82369023B0E2BBA
:1046A80004D94FF495711F4800F08EF86369023BF6
:1046B8000F2B04D940F22B111A4800F085F8A36992
:1046C8006BB1B3F1805F0AD0B3F1005F07D0B3F1EB
:1046D800405F04D04FF49671124800F075F856F810
:1046E800273003F040402368656843EA0513A5684E
:1046F80043EA0523E16843EA01452369013B45EAAA
:1047080003516369023B41EA0363A269134303430C
:1047180046F8273003E06FF0704340F8223000205D
:10472800F8BD00BF78A90008FEE700BF08B5034838
:1047380000F06CF80120FFF7F7FF00BFA8A90008F8
:1047480008B50D4B1B6813B90C4A0B4B1A600A4B82
:104758001A68C31C23F00303134409498B4206D982
:1047680001F0E6FB0C2303604FF0FF3008BD02495F
:104778000B60104608BD00BFD4080020AC0900201B
:1047880000FC012001230360014B0B60704700BF50
:104798000400002000B583B00C46194613460AB140
:1047A800064A00E0064A03B9054B019300922346E6
:1047B8000246044800F012F8FFF7B8FFBCA9000849
:1047C80050AA0008CCA9000808B50A4601460248C4
:1047D80000F004F8FFF7AAFFFCA900080FB400B521
:1047E80083B004AB53F8042B01938021064801F0F1
:1047F800F5FC002803DD0146034800F049F803B042
:104808005DF804EB04B07047DC08002010B50446DE
:1048180001F07CFC0146204600F03AF801210248EC
:1048280000F036F810BD00BFECAA00082DE9F043EF
:1048380085B004460F46435C13BB04252846214631
:10484800ABBE04461FE03546102E28BF10250023B6
:1048580006E014F8011B04AA1A4402F8101C0133DC
:10486800AB42F6D304AA1344002203F8102CE946FD
:104878004FF0040840464946ABBE8046761B00E030
:104888000E46002EDFD1384605B0BDE8F08300BFE4
:1048980008B5FFF7CBFF08BD08B500F0F1F808BD73
:1048A80008B500F021F908BDF8B504460D461746CD
:1048B8001E462648FFF792FF21682548FFF78EFF1E
:1048C80061682448FFF78AFFA1682348FFF786FF3D
:1048D800E1682248FFF782FF21692148FFF77EFF40
:1048E80061692048FFF77AFFA1691F48FFF776FF43
:1048F800E1691E48FFF772FF1D48FFF76FFF294661
:104908001C48FFF76BFF1C4CE16A1C48FFF766FF69
:10491800216B1B48FFF762FFE16B1A48FFF75EFF48
:1049280015F0800F03D039461748FFF757FF15F4E5
:10493800004F03D031461548FFF750FF1448FFF7E2
:104948004DFF06991348FFF749FFF8BD54AA000820
:1049580064AA000874AA000884AA000894AA000897
:10496800A4AA0008B4AA0008C4AA0008D4AA000887
:10497800E4AA0008F0AA000800ED00E000AB000877
:1049880010AB000820AB000830AB000840AB0008B3
:1049980050AB000858AB000883691A888A4207D1CF
:1049A8000268033A012A05D802338361012070475F
:1049B800002070470020704700BEFDE782B000234A
:1049C800019300932A4A136843F480331360284BF9
:1049D8001B6803F400330093019B01330193009B90
:1049E80023B9019A41F288339A42F0D1204B1B68CF
:1049F80013F4003F02D00123009301E00023009349
:104A0800009B012B32D11A4B1A6C42F080521A6467
:104A180018490A6842F480420A609A689A609A685B
:104A280042F400429A609A6842F4A0529A60124A8C
:104A38005A601A6842F080721A600D4B1B6813F0B6
:104A4800007FFAD040F205620C4B1A60A3F5806330
:104A58009A6822F003029A609A6842F002029A6009
:104A6800034B9B6803F00C03082BF9D102B0704785
:104A7800003802400070004019544007003C0240D2
:104A880010B5154C636A43F4E0236362D4F88830A8
:104A980043F47003C4F88830104A536823F0404345
:104AA80053600F4B1A6842F001021A6000219960A6
:104AB8001A6822F0847222F480321A60094A5A6015
:104AC8001A6822F480221A60D960FFF777FF4FF046
:104AD8000063A36010BD00BF00ED00E030EF00E010
:104AE8000038024010300024224B9B6803F00C036E
:104AF800042B07D0082B09D0002B2DD11E4A1F4BA1
:104B08001A602CE01E4A1D4B1A6028E0194B5A689F
:104B18005B6803F03F0312F4800F09D0184AB2FB18
:104B2800F3F2144B5B68C3F3881303FB02F208E04B
:104B3800114AB2FBF3F30F4A5168C1F3881101FB24
:104B480003F20C4B5B68C3F3014301335B00B2FB18
:104B5800F3F30A4A136002E0074A084B1A60054B50
:104B68009B68C3F30313074AD15C044A1368CB401C
:104B780013607047003802400024F4000C00002045
:104B880000127A009CAB00084FF4A070704700BF79
:104B9800F020704710B50C4600F010FB204600F0DE
:104BA80009FB10BD08B500211020FFF7F3FF002115
:104BB8001120FFF7EFFF00211220FFF7EBFF002184
:104BC8001320FFF7E7FF41F2B0711020FFF7E2FF73
:104BD80040F237111120FFF7DDFF40F239111220A2
:104BE800FFF7D8FF4FF4E8511320FFF7D3FF132145
:104BF8002920FFF7CFFF40F273110720FFF7CAFF04
:104C080008BD00BF08B500211020FFF7C3FF002131
:104C18001120FFF7BFFF00211220FFF7BBFF002183
:104C28001320FFF7B7FF00212920FFF7B3FF00216A
:104C38000720FFF7AFFF08BD10B504462020FFF797
:104C4800A9FFC4F59F71013189B22120FFF7A2FFA6
:104C580010BD00BF10B51446FFF7EEFF222000F08C
:104C6800ADFA204600F0A6FA10BD00BF08B5FFF760
:104C7800E3FF222000F0A2FA00F0A4FA00F0A2FA62
:104C880008BD00BF70B5064608461D461146FFF729
:104C9800D3FF222000F092FA002404E0304600F00E
:104CA80089FA0134A4B2AC42F8D370BD70B5049D42
:104CB80003FB02F6FFF7C0FF222000F07FFA002472
:104CC80005E035F8020B80B200F074FA0134B44202
:104CD800F7D370BD08B500F061FA01210020FFF795
:104CE80059FF4FF480710120FFF754FF4FF4E06142
:104CF8000220FFF74FFF41F218010320FFF74AFF98
:104D080000210420FFF746FF40F202210820FFF7A8
:104D180041FF00210920FFF73DFF00210A20FFF78E
:104D280039FF00210C20FFF735FF00210D20FFF788
:104D380031FF00210F20FFF72DFF00211020FFF782
:104D480029FF00211120FFF725FF00211220FFF77E
:104D580021FF00211320FFF71DFF41F2B071102041
:104D6800FFF718FF40F237111120FFF713FF40F249
:104D780039111220FFF70EFF4FF4E8511320FFF707
:104D880009FF13212920FFF705FF00212020FFF745
:104D980001FF00212120FFF7FDFE07213020FFF74A
:104DA800F9FE40F202313120FFF7F4FE40F205111E
:104DB8003220FFF7EFFE40F206213520FFF7EAFE2A
:104DC80040F608013620FFF7E5FE40F206213720BD
:104DD800FFF7E0FE40F204513820FFF7DBFE072121
:104DE8003920FFF7D7FE40F205113C20FFF7D2FE2D
:104DF80040F608013D20FFF7CDFE00215020FFF7C7
:104E0800C9FEEF215120FFF7C5FE00215220FFF710
:104E1800C1FE40F23F115320FFF7BCFE4FF427417B
:104E28006020FFF7B7FE01216120FFF7B3FE0021E4
:104E38006A20FFF7AFFE00218020FFF7ABFE0021BC
:104E48008120FFF7A7FE00218220FFF7A3FE0021A3
:104E58008320FFF79FFE00218420FFF79BFE00219F
:104E68008520FFF797FE10219020FFF793FE002181
:104E78009220FFF78FFE03219320FFF78BFE4FF45C
:104E880088719520FFF786FE00219720FFF782FEA4
:104E980000219820FFF77EFE41F218010320FFF75A
:104EA80079FE40F273110720FFF774FE00210846CF
:104EB800FFF7C2FE222000F081F908BDF8B50446CC
:104EC8000F4616461D465020FFF764FE7919013932
:104ED80089B25120FFF75EFE6142891B01F5A0717E
:104EE80089B25220FFF756FEC4F59F71013189B28D
:104EF8005320FFF74FFEF8BDF8B506460C46174697
:104F08001D4641F210010320FFF744FE39462046B2
:104F1800FFF792FE222000F051F9002404E0304609
:104F280000F048F90134A4B2AC42F8D341F21801B8
:104F38000320FFF72FFEF8BDF8B504460F46568844
:104F4800B3B2968843EA064653899BB2958943EAE9
:104F58000543F61A7608D51841F208010320FFF731
:104F680019FE39462046FFF767FE222000F026F991
:104F7800002405E035F8020B80B200F01BF901347B
:104F8800B442F7D341F218010320FFF703FEF8BD3E
:104F980008B500F013F900F015F908BD08B500F0E0
:104FA800FDF80020FFF7F4FF08BD00BF4FF0D04325
:104FB800588070474FF0D043188070474FF0D04367
:104FC800588880B2704700BF10B58AB02A4B9A6BD8
:104FD80042F001029A639A6B02F001020092009A71
:104FE8001A6B42F008021A631A6B02F00802019267
:104FF800019A1A6B42F010021A631A6B02F010023F
:105008000292029A1A6B42F020021A631A6B02F09B
:1050180020020392039A1A6B42F040021A631B6B38
:1050280003F040030493049B022306930123079390
:10503800032308930C2309930AAC4FF6337344F8FF
:10504800143D21460D48FFF723F84FF69B7305934F
:1050580021460B48FFF71CF84FF23F030593214602
:105068000848FFF715F840F23F43059321460648E4
:10507800FFF70EF80AB010BD00380240000C0240DD
:1050880000100240001402400018024000B599B018
:105098004FF02043079303F5827308930523009389
:1050A800012301930923029300230393022204920C
:1050B80005920693042209920A930B9310220C92EC
:1050C8000D930E930F9310934FF4805211921293F5
:1050D800139314931593FFF777FF6A46694607A859
:1050E800FFF77EF919B05DF804FB00BF00B58BB07F
:1050F800034650B9214A116B41F040011163126B0C
:1051080002F040020192019A25E001280AD11B4AC7
:10511800116B41F040011163126B02F040020292E0
:10512800029A18E002280AD1144A116B41F48071DE
:105138001163126B02F480720392039A0BE0032846
:1051480009D10E4A116B41F004011163126B02F090
:1051580004020492049A0A4830F8132005920122A6
:10516800069207920222089200EB830005A9806844
:10517800FEF78EFF0BB05DF804FB00BF003802405D
:1051880064C6000808B5044B03EB800233F810101E
:105198009068FFF713F908BD64C6000808B5044B0A
:1051A8001B7823B90122024B1A70FFF76FFF08BD65
:1051B8005C09002008B5FFF7F9FE08BD08B5FFF740
:1051C800F9FE08BD08B5FFF7F9FE08BD08B5024BA2
:1051D8001B689B6A984708BD6009002008B5024B08
:1051E8001B68DB6A984708BD60090020014B1860FE
:1051F800704700BF9C090020014B5860704700BFF2
:105208009C090020014B9860704700BF9C09002052
:1052180008B50D4B4FF6FF725A600C4A9A6000228F
:105228001A600B4B5B68984749F22533984209D1BD
:10523800074B084A13601B6898470448FFF7E2FFCA
:10524800002008BD012008BD9C0900201000002096
:105258001800002060090020014B9868704700BFC3
:105268009C09002008B5034B1B685B6903B198478C
:1052780008BD00BF600900202DE9F04F83B08146CA
:105288000F460092294B9B68DA8801929D8805F1A8
:10529800070B4FEAEB0BC5EBCB085FFA88F84FF02A
:1052A800000A3DE00AFB0BF3009A1A44BBF1010F18
:1052B80003D0BBF1020F03D008E0009AD65C0DE0E2
:1052C8000099CE5C537843EA062607E00099CE5C45
:1052D80053781B0243EA064396781E43002419E0DC
:1052E8002B1B4344013B012202FA03F3334208D04B
:1052F80009EB04000D4B1A88394680B2FFF7B2FF5C
:1053080007E009EB0400094B9A88394680B2FFF799
:10531800A9FF0134AC42E3D30137BFB20AF1010A55
:10532800019B9A45BED303B0BDE8F08F9C090020CD
:1053380038B5074B9B681C68203ADD8802FB05F2EC
:105348009B880733DB1003FB0242FFF795FF38BD4C
:105358009C0900202DE9F04180460F4616461D465F
:105368001346002401E0013413465A1C1B78002B15
:10537800F9D1FFF72BFF1E4B9B689B88B0FBF3F01E
:10538800012D02D0022D08D00EE0001B00FB03F017
:1053980008EB50001FFA80F806E0041B14FB03F02A
:1053A800C8EB00001FFA80F800240DE016F8012B66
:1053B80039464046FFF7BCFF0D4B9B689888404430
:1053C8001FFA80F80134A4B23578FFF7FFFE084BC6
:1053D8009B689B8803FB140080B2003518BF012529
:1053E800984238BF0025002DE0D1BDE8F08100BF0C
:1053F8009C09002038B504460D46FFF72DFFC188EB
:1054080011FB04F103232A4689B20020FFF7A2FF0B
:1054180038BD00BFF8B506460F4615460B4B1B684E
:105428001C6A7CB113460A46014609480088A04711
:10543800F8BD3019064B1A88394680B2FFF712FFBB
:10544800013400E00024AC42F3D3F8BD6009002029
:105458009C09002038B50B4B1D681860002407E034
:10546800FFF7B4FE82B2A1B20020FFF7D3FF0134E8
:10547800FFF7B4FE8442F3D3024B1D60A8B2FFF7D6
:10548800B5FE38BD9C0900204FF40042014B5A611B
:10549800704700BF003C01400122014B5A61704730
:1054A800003C014008B5FFF7B3FE4FF6E070FFF788
:1054B800D1FF4FF6E070FFF79FFE1F20FFF796FE23
:1054C80008BD00BF38B505460C46FFF7C5FEC088C5
:1054D80015FB00F0214680B2FFF78CFF38BD00BFF6
:1054E80008B50020FFF702FE0020FFF74BFE6420FE
:1054F80000F00CFD0020FFF745FE4FF4C87000F0E7
:1055080005FDF1E700B585B000F020F8FEF78AFD4B
:10551800FFF7C8FF09490020FFF7D4FF00230393D2
:1055280002930193064A009280220649064800F039
:10553800C7FCFCF77FFC05B05DF804FBB4C60008A7
:1055480001000080C4C60008E954000808B5084AEC
:10555800536A43F4E0235362064B074A934203D24B
:10556800002243F8042BF8E700F06EF808BD00BFEE
:1055780000ED00E0000000100000011000F1080339
:1055880043604FF0FF328260C36003610023036011
:10559800704700BF00230361704700BF43684B603A
:1055A8009A688A609A685160996008610368013353
:1055B8000360704730B40D68B5F1FF3F01D102694F
:1055C80007E000F1080200E01A4653681C68A5428B
:1055D800FAD253684B6099608A6051600861036829
:1055E8000133036030BC7047036942688168916089
:1055F8008268416851605A68904201D182685A6055
:105608000022026118680138186070470B4BD3F804
:1056180068311B680BB9012300E000232BB14FF060
:10562800FF32064BC3F878217047044BD3F8682142
:10563800D268D268926AC3F87821704700000010D7
:1056480008B5FCF759F8FCE708B504480449091AF5
:1056580000F0AEFB034B186008BD00BF0402001049
:105668000000011000020010406820F0030070479D
:10567800436803F0030319434160704708B5FFF717
:10568800F3FFB0FA80F0400908BD00BF406800F0A1
:1056980001007047436843F001034360704700BF4F
:1056A800436823F001034360704700BF406800F07F
:1056B80002007047436843F002034360704700BF2D
:1056C800436823F002034360704700BF08387047FF
:1056D80008307047084470470068704710B50C469A
:1056E800FFF7C2FF1034A04234BF0020012010BDD4
:1056F80010B404468060C060002101610FE00B1DFA
:1057080000EB830300225A6006E002EB41131C33CE
:1057180000EB83035C6001321F2AF6DD0131172993
:10572800EDDD10BC704700BF38B50446FFF7D0FF69
:1057380005462046FFF798FF011F2846FFF7CAFFD6
:1057480005462046FFF79AFF28B1044B044AF52185
:105758000448FFF71FF8284638BD00BF60C7000897
:1057680054C7000878C7000810B50446FFF7DCFFE7
:10577800046010BD10B50446FFF7F6FFFFF79AFF67
:105788002046FFF787FF10BD10B50446FFF7CCFF92
:10579800FFF796FF2046FFF783FF10BD08B54B1EA5
:1057A800194206D0044B054A4FF48C710448FEF7A1
:1057B800F1FF4942084008BD14C8000894CF00080A
:1057C80078C7000808B5084401384B4218404B1EFA
:1057D800194206D0034B044A4FF490710348FEF770
:1057E800D9FF08BD14C80008D4CF000878C700083E
:1057F8002DE9F0411F4603EB42131C3300EB8303F2
:105808005B6833B91C4B1D4A40F297111C48FEF7E0
:10581800C1FF04460D46164631B91A4B174A4FF4D4
:10582800CC711748FEF7B6FF8B60E860D960084670
:10583800FFF74EFF80460421FFF7C4FF804506D0DE
:10584800114B0E4A40F29D110D48FEF7A3FF07EBDE
:1058580046131C3304EB83035D60012303FA06F24D
:1058680021690A432261BB40043604EB860462685E
:1058780013436360BDE8F08154C80008ACCF00084A
:1058880078C7000884C80008C0C8000838B5CC68C4
:105898008D6834B9194B1A4A40F27B111948FEF742
:1058A80079FF35B9184B164A4FF4BE711548FEF703
:1058B80071FFEC60A56003EB42141C3400EB840418
:1058C8006468A14219D103EB42111C3100EB81013C
:1058D8004D60854211D1012101FA03F3141D00EB3B
:1058E8008404616821EA0303636033B9012303FA7E
:1058F80002F2036923EA0203036138BD24C90008E0
:1059080080CF000878C7000850C9000808B54B1EAA
:10591800194206D0054B064A4FF489710548FEF72F
:1059280039FF084401384942084008BD14C8000836
:1059380048C7000878C7000808B5421E054B9A42B8
:1059480005D8FFF7E3FF0C2802D80C2008BD00207B
:1059580008BD00BFFEFFFF3F2DE9F84380460E4615
:10596800FFF7B6FE311FFFF7B5FE04464046FFF7C6
:105978007BFE0746851B2046FFF7AAFE81460421C9
:10598800FFF720FF814506D0164B174A4FF4E37105
:105998001648FEF7FFFE043D731904339F4206D0F4
:1059A800134B114A40F2C9111048FEF7F3FE29467D
:1059B8002046FFF75DFE2046FFF756FE0B2806D867
:1059C8000C4B094A40F2CB110848FEF7E3FE31467A
:1059D8004046FFF74DFE2046FFF7CCFE2046BDE8C7
:1059E800F88300BF7CC90008DCC6000878C7000837
:1059F800F0C9000830CA000838B504460D46FFF75C
:105A08003DFE30B1094B0A4A4FF4EB710948FEF7E5
:105A1800C1FE2846FFF728FE04306368184460601A
:105A28002046FFF7A1FE204638BD00BF7CCA00080B
:105A3800F8C6000878C7000820B1B0FA80F0C0F1B5
:105A4800200000E000200138704700BF70B5044610
:105A58000E4615467F2806D80346002800DAC31CE0
:105A68009C10002006E0FFF7E7FF431FDC4084F0AE
:105A78002004063830602C6070BD00BF30B583B09C
:105A880005460C460846FFF7EFFD6A4601A9FFF7F1
:105A9800DDFF009B019A21462846FFF7A9FE03B0C7
:105AA80030BD00BF70B506460C4615460846FFF7E0
:105AB800EDFD30B90D4B0E4A40F2FF110D48FEF7CF
:105AC80069FE29462046FFF709FE70B1294620469F
:105AD800FFF742FF05462046FFF746FE2846FFF738
:105AE800E9FD29463046FFF7C9FF70BDB4CA000872
:105AF800E8C6000878C7000851B110B50C46FFF792
:105B0800D1FF2046FFF740FE2046FFF7E1FD10BD1C
:105B18000020704730B583B005460C460846FFF7AD
:105B2800A3FD6A4601A9FFF791FF009B019A214650
:105B38002846FFF7ABFE03B030BD00BF70B5064680
:105B48000C460846FFF7B2FDF0B12046FFF7C4FD4A
:105B5800054630B90D4B0E4A40F2E3110D48FEF7E9
:105B680019FEFFF793FD30B90B4B094A4FF4F27158
:105B78000848FEF70FFE29463046FFF7CBFF2146BF
:105B88002846FFF739FF0446204670BDE4CA0008DE
:105B980020C7000878C7000810CB000870B5064673
:105BA8000C460846FFF7C0FD30B9104B104A4FF4B9
:105BB800F8711048FEF7EEFD0546FFF767FD98B14E
:105BC8002046FFF75BFD30B10B4B094A4FF4FA71E1
:105BD8000848FEF7DFFD29463046FFF79BFF2946B8
:105BE8002046FFF709FF0446204670BD58CB000841
:105BF80034C7000878C7000884CB000870B504468D
:105C08000D4616461F2807D9FFF716FF053801234A
:105C180003FA00F001380444324629462046FFF7CB
:105C280015FF70BD90FAA0F3B3FA83F308B94FF0EB
:105C3800FF331846704700BFF8B5054616460C688E
:105C48001068231D05EB83035B684FF0FF3202FAEF
:105C580000F0184010D10F462A69601C4FF0FF333E
:105C680003FA00F0104019D0FFF7DCFF0446386053
:105C7800031D05EB8303586830B9094B094A4FF4F3
:105C8800B7710948FEF786FDFFF7CCFF306000EBDF
:105C980044101C3005EB80004068F8BD0020F8BDBA
:105CA800F0CB000808C7000878C7000870B582B0B4
:105CB80005460023019300930E4659B16A4601A98F
:105CC8003046FFF79BFF6A4601A92846FFF7B4FF55
:105CD800044600E000248CB12046FFF7C5FC86424C
:105CE80006D9084B084A40F235210848FEF752FD0C
:105CF800009B019A21462846FFF7C8FD204602B0BE
:105D080070BD00BF2CCC0008C0CF000878C70008C1
:105D180040F67440704700BF08207047F8B5074642
:105D28000C461546FFF7F8FF0421281AFFF736FD41
:105D380014F0030F02D000BE0020F8BD0646A0F103
:105D48000C02144B9A4202D900BE0020F8BD6FF035
:105D580003012046FFF7BEFC05463146FFF788FCE5
:105D68002846FFF797FC2846FFF7AAFC294638463D
:105D7800FFF784FE2846FFF7F7FC05460021FFF7EA
:105D880077FC2846FFF78CFC2846FFF793FC204653
:105D9800F8BD00BFF4FFFF3F10F0030F02D000BEB4
:105DA8000020704710B50446FFF7A2FC204610BD3E
:105DB80070B505460E46FFF7EFFF0446FFF7A8FF4C
:105DC800321A29182046FFF7A9FF204670BD00BFE8
:105DD80038B5044608460421FFF7AEFD05460146DE
:105DE8002046FFF763FF2A4601462046FFF784FE58
:105DF80038BD00BFF9B138B504460846FFF766FC60
:105E08000546FFF743FC30B10B4B0C4A40F2D13149
:105E18000B48FEF7BFFC2846FFF7ACFC2946204696
:105E2800FFF78CFE01462046FFF7B8FE01462046E4
:105E3800FFF724FE38BD704748CF0008A0CF000800
:105E480078C70008EFF3148010F0010F1ABF002084
:105E580002DF01207047002008B5FFF7F3FF014675
:105E68004FF0BF0080F31188064A136801331360AE
:105E7800012905D0EFF3148040F0010080F3148865
:105E880008BD00BF5000002008B5FFF7DBFF024641
:105E98000A4B1B6803B900BE013B08490B601BB9DC
:105EA8004FF0000080F31188012A05D0EFF3148029
:105EB80040F0010080F3148808BD00BF50000020A6
:105EC8002DE9F04184B005460E4617469846FFF77F
:105ED800B9FF04460D9B03930C9B02930B9B019304
:105EE8000A9B009343463A4631462846FBF708FF8B
:105EF8000346012C05D0EFF3148040F0010080F335
:105F08001488184604B0BDE8F08100BF38B50546CE
:105F1800FFF798FF04462846FBF76CFB012C05D0D9
:105F2800EFF3148040F0010080F3148838BD00BFFF
:105F3800014B1868704700BF80040020844641EA7E
:105F4800000313F003036DD1403A41D351F8043BE9
:105F580040F8043B51F8043B40F8043B51F8043B3B
:105F680040F8043B51F8043B40F8043B51F8043B2B
:105F780040F8043B51F8043B40F8043B51F8043B1B
:105F880040F8043B51F8043B40F8043B51F8043B0B
:105F980040F8043B51F8043B40F8043B51F8043BFB
:105FA80040F8043B51F8043B40F8043B51F8043BEB
:105FB80040F8043B51F8043B40F8043B51F8043BDB
:105FC80040F8043B51F8043B40F8043B403ABDD24A
:105FD800303211D351F8043B40F8043B51F8043BEC
:105FE80040F8043B51F8043B40F8043B51F8043BAB
:105FF80040F8043B103AEDD20C3205D351F8043B7B
:1060080040F8043B043AF9D2043208D0D2071CBF46
:1060180011F8013B00F8013B01D30B88038060466F
:10602800704700BF082A13D38B078DD010F00303E5
:106038008AD0C3F10403D21ADB071CBF11F8013B55
:1060480000F8013B80D331F8023B20F8023B7BE7A4
:10605800043AD9D3013A11F8013B00F8013BF9D2CF
:106068000B7803704B7843708B7883706046704769
:1060780070B4840746D0541E002A41D0CDB20346DE
:1060880002E0621EE4B3144603F8015B9A07F8D1F4
:10609800032C2ED9CDB245EA05250F2C45EA054536
:1060A80019D903F110022646103E0F2E42F8105C53
:1060B80042F80C5C42F8085C42F8045C02F11002F9
:1060C800F2D8A4F1100222F00F0204F00F041032EB
:1060D800032C13440DD91E462246043A032A46F8D7
:1060E800045BFAD8221F22F003020432134404F09E
:1060F80003042CB1C9B21C4403F8011BA342FBD111
:1061080070BC704714460346C2E700BF20F0030185
:1061180010F00300C0F1000051F8043B00F1040C3A
:106128004FEACC0C6FF000021CBF22FA0CF21343AA
:106138004FF0010C4CEA0C2C4CEA0C4CA3EB0C0273
:1061480022EA030212EACC1204BF51F8043B0430DD
:10615800F4D0C2F1000102EA0102B2FA82F2C2F1FD
:106168001F0200EBD200704770B5002A9AB00546AE
:106178002FDB14461A464FF4027300910491ADF8D0
:106188000C3011D0013C4FF6FF761E9B02946946F5
:106198000594ADF80E6000F031F8421C12DB009B4C
:1061A80000221A701AB070BD1E9B02944FF6FF763B
:1061B80069460594ADF80E6000F020F8431C04DB36
:1061C8001AB070BD8B232B60E9E78B232B601AB0C4
:1061D80070BD8B2303604FF0FF30F1E710B582B03C
:1061E800054C0093246813460A4601462046FFF7EB
:1061F800BBFF02B010BD00BF800400202DE9F04FA6
:10620800BFB00C46079192460D93099002F0F4FA3C
:10621800036814931846FFF779FFA38915901D06A4
:1062280003D52369002B01F0278100231A46119317
:106238002393229316930A932EAB21939946129295
:1062480013929AF800305446EBB1252B02D11AE08C
:10625800252B03D014F8013F002BF9D1CAEB040514
:106268008DB1229B239AC9F800A001332A44072B39
:10627800C9F804502392229300F3A68009F1080973
:106288000A9B2B440A932378002B00F0A680002356
:106298001A468DF8673019460B9306934FF0FF3B6B
:1062A800637804F1010A5D460AF1010AA3F12000AE
:1062B800582800F21884DFE810F07C03160416044E
:1062C80084031604160416041604160416048B0315
:1062D800990316045D00E2001604FE00050105019D
:1062E8000501050105010501050105010501160462
:1062F80016041604160416041604160416041604C6
:1063080016041501840216048402160416041604E1
:106318001604BA0216041604C1021604160416045A
:1063280016041604EB0216041604190316041604C0
:106338001604160416041604160416041604160485
:106348005A036D0384028402840275036D031604E4
:106358001604C4031604CE03A3006400E103160464
:10636800E80316049E0316041604AF030B980D9356
:1063780040420B90069B43F0040306939AF80030C2
:1063880092E70D98AB46002104688DF86710071D49
:106398000698302378228B458DF868304FF0000539
:1063A8008DF8692040F00203C0F2BA8320F0800320
:1063B80043F00203069354EA05030D9700F0868321
:1063C8000F460F92B248C2E221AA0799099803F032
:1063D80061F848B90DF1B80952E7239B23B1099830
:1063E800079921AA03F056F8079B9B8913F0400FE1
:1063F8000A9B18BF4FF0FF3318463FB0BDE8F08F37
:106408000F93AB46002A41F00482069A12F020034B
:1064180000F022820D9F073727F00703002703F1BA
:106428000801BB450D91D3E900458DF86770C0F2AE
:10643800A68622F08003069354EA050300F06883D9
:106448002EAEE20842EA4572E90804F007030D4659
:106458001446303354EA050206F8013DF1D1069A94
:10646800D10740F18480302B00F081803022731EE8
:1064780006F8012C2EAAD21A0C921E467AE09AF837
:1064880000302A2B0AF1010401F08A81A3F13000BF
:10649800092898BF002501F2EA8014F8013B05EBB2
:1064A800850500EB4505A3F130000928F5D945EA33
:1064B800E575A246FAE6069B43F0800306939AF830
:1064C8000030F1E6A3F1300000231C461AF8013B26
:1064D80004EB840400EB4404A3F130000928F5D947
:1064E8000B94E3E60F93AB46002A41F0BB81069B71
:1064F80043F010030693069B980640F120850D9FF4
:10650800073727F00707D7E9002307F108010D919E
:1065180014461D46002A73F10003C0F24D85BBF1F5
:10652800000F9DF86770C0F23585069B23F0800345
:10653800069354EA050300F0CF81002D08BF0A2C0A
:10654800C0F0CF812EAE204629460A22002304F04F
:1065580051F8303206F8012D2046294600230A2238
:1065680004F048F804460D4654EA0503EBD12EAB77
:106578009B1B0C930C9B5B45B8BF5B4608930023A1
:10658800109317B1089B01330893069B13F002037D
:106598000E9302D0089B02330893069B13F08408DD
:1065A80040F0CB820B9B089A9D1A002D40F3C582C0
:1065B800102D2399229A374F23DD48461024C146CF
:1065C800B046099E04E0103D102D00F1080015DDCD
:1065D80001321031072A2391229207604460F2DDCC
:1065E80021AA0799304602F055FF00287FF4FCAE37
:1065F800103D102D2399229A2EA8E9DC4646C8465C
:10660800814601326C18072A23942292C9F8007037
:10661800C9F8045000F31F849DF8677009F1080950
:1066280077B1229B013301340DF167010122072B59
:106638002394229389E8060000F3968309F1080958
:106648000E9B6BB1229B013302341AA90222072B3D
:106658002394229389E8060000F3928309F108093C
:10666800B8F1800F00F0CD820C9BC3EB0B07002F15
:1066780041DD102F229BDFF820802FDD4146224686
:10668800B0464FF0100B099D079C0E460BE000BF6B
:1066980028D00008F4CF0008E4CF0008103F102FDE
:1066A80009F1080916DD01331032072B23922293D2
:1066B80089E84008F2DD21AA2146284602F0EAFED0
:1066C80000287FF491AE103F102F239A229B0DF1E2
:1066D800B809E8DC144632464646904601333C4445
:1066E800072B23942293C9F80080C9F8047000F39B
:1066F8002F8309F10809069BDA0500F12082229B05
:106708000C99C9F8006001330C44072B2394C9F88D
:106718000410229300F3068309F10809069B590720
:106728003FD50B9B089A9D1A002D3ADD102D229B10
:10673800B54F23DD1026DDF82480DDF81CB004E019
:10674800103D102D09F1080918DD01331034072B0D
:1067580023942293C9F80070C9F80460F0DD21AAD7
:106768005946404602F096FE00287FF43DAE103DA3
:10677800102D239C229B0DF1B809E6DC01332C4433
:10678800072B23942293C9F80070C9F8045008DD38
:1067980021AA0799099802F07DFE00287FF424AE0B
:1067A800239C0A9B0B9A08998A42ACBF9B185B18DA
:1067B8000A93002C40F0C282002322930DF1B809FD
:1067C8003FE50F93AB46002A41F048800D9F0737FD
:1067D80027F0070303F108020D921A6812925B680A
:1067E8001393129D139C2846214602F017FE012898
:1067F80040F09984284621460022002303F0AAFE8F
:10680800002840F0C7869DF8677006997F4E804B38
:1068180021F0800106910F9903224FF0000B089296
:106828004729D8BF1E460C92CDF840B0A9E6069B72
:1068380043F0080306939AF8003035E50F93AB460A
:10684800002A40F0F787069B43F010030693069A48
:1068580012F020037FF4DEAD069911F0100200F06B
:106868007C840D988DF86730BBF1000F046800F147
:1068780004074FF00005C0F281840A4622F0800226
:10688800069254EA05020D9700F042811F46D7E5AB
:106898000F93AB46002A40F0D987069B43F01003BC
:1068A8000693069A12F0200300F02E830D9F0737F7
:1068B80027F00703002703F10801BB450D91D3E931
:1068C80000458DF86770C0F2658322F08003069357
:1068D80054EA05037FF431AEBBF1000F00F0FD80F0
:1068E80000243EAE303406F8414D40E60F93AB46E7
:1068F800002A40F0A787069B46489D0640F19680EF
:106908000D9F073727F00703D3E9004503F1080275
:106918000D92069A12F0010700F03E8254EA050330
:1069280000F071849DF83C208DF869200027069AB4
:106938008DF867703023BB458DF8683042F002034C
:10694800C0F2258622F0800343F0020306932EAEA0
:10695800230904F00F0143EA05732A091C4615466A
:10696800435C06F8013D54EA0503F1D1FFE50D99B2
:106978000F930A688DF8902000230A461F468DF869
:106988006730043201230893BB4610970D920C938D
:1069980024AEFAE50F93AB46002A3FF4ACAD8DF870
:1069A8006710A8E5069B43F0400306939AF8003069
:1069B8007AE49AF8003000297FF476AC012220218D
:1069C80072E4069B43F0010306939AF800306BE4E7
:1069D8000D9C23680B9318460028234603F10403F3
:1069E800FFF6C4AC0D939AF800305DE49AF80030D5
:1069F80001222B2158E40F93AB46002A3FF451AFF4
:106A08008DF867104DE700BFF4CF000808D00008E4
:106A180004D0000814D000080F93AB46002A40F0B9
:106A28000D87069B98489D063FF56AAF069BDC06D6
:106A380040F1BF830D9A1346043314680D93002563
:106A480067E79AF800306C2B00F06D84069840F0E8
:106A58001000069028E4002A40F0FC86069B9B065E
:106A680040F190830D9A0A991368CD1708460432AD
:106A780029460D92C3E90001FFF7E3BB069B43F0EB
:106A8800200306939AF800300EE40D9A0F931668C7
:106A980000248DF86740171D002E00F06985002D31
:106AA800C0F225852A462146304602F061F90028C1
:106AB80000F09985831B0C93A34623EAE3730D9793
:106AC8000893CDF840B09DF867705AE56E480F926C
:106AD800BBF1000F40F071815F464FF0000BCDF81D
:106AE80030B02EAE46E50F93002A40F09D860F9AEF
:106AF800002A3FF472AC002301211F4608918DF84B
:106B080090208DF867309B4610930C9124AE3CE59D
:106B1800BBF1000F00F052860027002400258FE407
:106B2800594806930F9254EA05030D974FF0000752
:106B38007FF40DAF0024002509E7239C70E50F9B27
:106B4800652B40F3A780129813990022002303F0C5
:106B5800F7FC002800F03381229B4C4AC9F800203A
:106B6800013301340122072B23942293C9F804200E
:106B780000F3668309F108091B9B119A934203DB12
:106B8800069BDB077FF5CAAD229B1599149AC9F8B5
:106B9800002001330C44072B2394C9F804102293D6
:106BA80000F3CB8309F10809119B5D1E002D7FF7C7
:106BB800B5AD102D229BDFF8D88040F3D181102687
:106BC800099FDDF81CB005E009F10809103D102DFA
:106BD80040F3C68101331034072B23942293C9F85C
:106BE8000080C9F80460EFDD21AA5946384602F052
:106BF80051FC00287FF4F8AB239C229B0DF1B809C7
:106C0800E4E70B9B089A9F1A002F7FF72DAD102FF2
:106C1800229BDFF87C8029DD40464A462146B04663
:106C28001025099CDDF81C90064604E0103F102F43
:106C380002F1080215DD01331031072B239122934D
:106C480016605560F2DD21AA4946204602F022FC72
:106C580000287FF4C9AB103F102F2399229B2EAA3E
:106C6800E9DC914632460C464646904601333C44A0
:106C7800072B23942293C9F80080C9F8047000F305
:106C8800458209F10809EFE428D0000844D000083B
:106C9800E4CF0008119B229D012B40F30C820135A3
:106CA80001340123072D23942295C9F80060C9F8FF
:106CB800043000F3118209F10809159A149BC9F8E8
:106CC800003001351444072D23942295C9F8042077
:106CD80000F30F8209F10809002312981399002282
:106CE80003F02EFC119B002840F0C480013B0135C5
:106CF80001361C44072D22952394C9F80060C9F871
:106D0800043000F3F48009F10809169AC9F8042040
:106D1800013514441DAB072D23942295C9F8003082
:106D28007FF7FAAC21AA0799099802F0B3FB00286B
:106D38007FF45AAB239C0DF1B809EFE421AA079917
:106D4800099802F0A7FB00283FF436ADFFF74CBBCB
:106D580021AA0799099802F09DFB00287FF444AB0B
:106D6800239C0DF1B809C6E421AA0799099802F0F5
:106D780091FB00287FF438AB239C0DF1B8095FE440
:106D880021AA0799099802F085FB00287FF42CAB0B
:106D9800239C0DF1B80963E4BBF1000F8DF867700F
:106DA800C0F25A8222F08003069354EA05037FF466
:106DB800CEADBBF1000F3FF48FAE0027BAE61B9DA6
:106DC800002D40F34B82109B119A9342A8BF1346A3
:106DD800002B1D460DDD229BC9F8006001332C44B1
:106DE800072B2394C9F80450229300F3888309F1F0
:106DF8000809109B002DA8BF5B1B002B1D4640F304
:106E0800F780102D229BDFF8588540F30B8241460E
:106E18002246B0461027DDF824B0079C0E4605E050
:106E280009F10809103D102D40F3F88101331032A3
:106E3800072B2392229389E8C000F1DD21AA21467D
:106E4800584602F027FB00287FF4CEAA239A229BFB
:106E58000DF1B809E6E721AA0799099802F01AFB8B
:106E680000287FF4C1AA9DF86770239C0DF1B8092A
:106E7800FFF7D6BB5E1E002E7FF747AF102EDFF858
:106E8800E08429DDCDF830A01027C246DDF824B013
:106E9800DDF81C8004E0103E102E09F1080918DD09
:106EA80001351034072D23942295C9F800A0C9F89C
:106EB8000470F0DD21AA4146584602F0EBFA00289A
:106EC8007FF492AA103E102E239C229D0DF1B80942
:106ED800E6DCD046DDF830A0C9F80080013534443E
:106EE800072D23942295C9F804607FF70CAF21AAD7
:106EF8000799099802F0CEFA00287FF475AA239C16
:106F0800229D0DF1B80900E7069911F0100200F072
:106F18005E810D988DF86730BBF1000F046800F1B1
:106F280004074FF0000533DB0A4622F08002069280
:106F380054EA05020D971F467FF4FFAACCE4069B8E
:106F4800D9062CD4069B5A0629D50D99B1F90040CB
:106F58000431E51722462B460D91FFF7DBBAB846F8
:106F680001332C44072B23942293C9F80080C9F8D5
:106F780004507FF7D1ABD5E60D998DF86730BBF19A
:106F8800000F0C6801F104074FF0000580F2BA8188
:106F98000D971F4654EA05037FF4CFAAA1E40D9A82
:106FA800146813460433E51722460D93002A2B462E
:106FB80073F10003BFF6B3AA64424FF02D0765EBE7
:106FC8004505BBF1000F8DF86770FFF6B6AA069B62
:106FD80023F080030693FFF7B0BA21AA079909980E
:106FE80002F058FA00287FF4FFA9239C0DF1B80994
:106FF800109A1B9B32441746119A93424ADB069A11
:10700800D50747D411990E44F51BCB1A9D42A8BF4A
:107018001D46002D2E460DDD229AC9F8007001325A
:107028002C44072A2394C9F80450229200F3918231
:1070380009F10809002EACBF9D1B1D46002D7FF7E6
:107048006DAB102D229BDFF8188389DD474610268B
:10705800DDF81CB0DDF8248005E009F10809103DD1
:10706800102D7FF77CAF01331034072B2394229324
:10707800C9F80070C9F80460EFDD21AA59464046F6
:1070880002F008FA00287FF4AFA9239C229B0DF197
:10709800B809E4E7229A15981499C9F80010013242
:1070A8000444072A2394C9F80400229200F3338287
:1070B80009F10809A6E7069BD8073FF5F0AD0135A9
:1070C80001340123072D23942295C9F80060C9F8DB
:1070D80004307FF718AE0AE721AA0799099802F049
:1070E800D9F900287FF480A9239C229D0DF1B809C5
:1070F800E3E521AA0799099802F0CCF900287FF462
:1071080073A9239C229D0DF1B809E5E521AA0799E9
:10711800099802F0BFF900287FF466A9239C0DF1B5
:10712800B809FFF7A1BA1298139902F077F9002865
:1071380040F018810699874E874B9DF8677010902C
:1071480021F0800106910F9903228346089247296E
:10715800D8BF1E460C92FFF714BA069911F04003E7
:1071680000F0D2800D988DF86720BBF1000F0488DD
:1071780000F104074FF0000580F273810D97002796
:10718800FFF75EB9069BDF060BD4069B5E0608D5A3
:107198000D9A136804320D92BDF828201A80FFF763
:1071A80050B80D9A136804320D920A9A1A60FFF7C4
:1071B80048B80D9A069B13F0400F134603F10403D9
:1071C8000CBF146814880D930025FFF7A2BB06991D
:1071D80011F040033FF4D0AE0D988DF86720BBF155
:1071E800000F048800F104074FF00005C0F2638126
:1071F80021F08003069354EA05030D9717467FF4A0
:107208009CA9FFF769BB0027BB458DF86770FFF69F
:1072180091AC069B23F08003069359E4144632464A
:107228004646904601332C44072B23942293C9F8F1
:107238000080C9F804503FF7D0AE09F10809D7E635
:1072480021AA0799099802F025F900287FF4CCA80B
:10725800239C0DF1B8098FE40D9F64E4229B3F4AFB
:10726800C9F80020013301340122072B239422930B
:10727800C9F8042000F30F8109F108092DB9119B01
:107288001BB9069BDF077FF549AA229B1599149A1B
:10729800C9F8002001330C44072B2394C9F80410C3
:1072A800229300F3D68109F108096D42002D40F3BD
:1072B8001181102DDFF8A88040F33E814146224617
:1072C800B0461027DDF824B0079C0E4605E009F10A
:1072D8000809103D102D40F32B8101331032072B84
:1072E8002392229389E8C000F1DD21AA214658465D
:1072F80002F0D0F800287FF477A8239A229B0DF19A
:10730800B809E6E7069A10E60D998DF86730BBF1E3
:10731800000F0C6801F104074FF00005FFF62EAFCF
:10732800069AFFF7ABBA069B43F0200306930AF1CF
:10733800010A9AF80030FEF7B7BF21AA0799099801
:1073480002F0A8F800287FF44FA8239C0DF1B80993
:107358002AE400BF10D000080CD0000844D0000870
:10736800E4CF00080F9BBBF1FF3F23F020030893F5
:1073780000F09E80472B04D1BBF1000F08BF4FF0EF
:10738800010B069BDDF8488043F480730E93139B32
:107398001F1EB6BF03F1004700232D2317930F9B31
:1073A800662B00F07781462B00F09B81089B1FA875
:1073B800452B1CA90CBF0BF101055D4604900391F8
:1073C8001BA802213B46029042460195009109986C
:1073D80000F0E6FA0F9B672B064600F0E0800F9B53
:1073E800472B00F0EC8074194046394600220023F0
:1073F80003F0A6F8002840F0F4801F9B9C4206D9B1
:1074080030215A1C1F9219701F9B9C42F9D89B1B54
:107418001193089B472B00F0DD800F9B652B40F3F1
:1074280007820F9B662B1B9B109300F04C81109AD0
:1074380011998A42C0F21F81069BD90700F19381F6
:1074480022EAE2730C9267220F92179A002A40F000
